{
  "abi": [
    {
      "inputs": [
        {
          "internalType": "bytes32",
          "name": "_password",
          "type": "bytes32"
        }
      ],
      "stateMutability": "nonpayable",
      "type": "constructor"
    },
    {
      "anonymous": false,
      "inputs": [
        {
          "indexed": false,
          "internalType": "address",
          "name": "",
          "type": "address"
        }
      ],
      "name": "Winner",
      "type": "event"
    },
    {
      "inputs": [],
      "name": "locked",
      "outputs": [
        {
          "internalType": "bool",
          "name": "",
          "type": "bool"
        }
      ],
      "stateMutability": "view",
      "type": "function"
    },
    {
      "inputs": [
        {
          "internalType": "bytes32",
          "name": "_password",
          "type": "bytes32"
        }
      ],
      "name": "unlock",
      "outputs": [],
      "stateMutability": "nonpayable",
      "type": "function"
    }
  ],
  "bytecode": {
    "object": "0x608060405234801561001057600080fd5b5060405161016b38038061016b83398101604081905261002f91610045565b6000805460ff191660019081179091555561005e565b60006020828403121561005757600080fd5b5051919050565b60ff8061006c6000396000f3fe6080604052348015600f57600080fd5b506004361060325760003560e01c8063cf309012146037578063ec9b5b3a146057575b600080fd5b60005460439060ff1681565b604051901515815260200160405180910390f35b6066606236600460b1565b6068565b005b806001540360ae576000805460ff191690556040513381527f745c90b656b4aafe296c8ca35aeacfe56cb96c90e1d320e5da643fff1051b6c09060200160405180910390a15b50565b60006020828403121560c257600080fd5b503591905056fea2646970667358221220bfc1c348d06a418c784d24c5a8435c1fd30c7b9567fd4bce05fe654b7a2736ae64736f6c63430008150033",
    "linkReferences": {}
  },
  "methodIdentifiers": {
    "locked()": "cf309012",
    "unlock(bytes32)": "ec9b5b3a"
  },
  "id": 1
}